{
  "_format": "hh-sol-artifact-1",
  "contractName": "Crowdfunding",
  "sourceName": "contracts/Crowdfunding.sol",
  "abi": [
    {
      "inputs": [
        {
          "internalType": "address",
          "name": "_owner",
          "type": "address"
        },
        {
          "internalType": "string",
          "name": "_name",
          "type": "string"
        },
        {
          "internalType": "string",
          "name": "_description",
          "type": "string"
        },
        {
          "internalType": "uint256",
          "name": "_goal",
          "type": "uint256"
        },
        {
          "internalType": "uint256",
          "name": "_durationInDays",
          "type": "uint256"
        }
      ],
      "stateMutability": "nonpayable",
      "type": "constructor"
    },
    {
      "inputs": [
        {
          "internalType": "string",
          "name": "_name",
          "type": "string"
        },
        {
          "internalType": "uint256",
          "name": "_amount",
          "type": "uint256"
        }
      ],
      "name": "addTier",
      "outputs": [],
      "stateMutability": "nonpayable",
      "type": "function"
    },
    {
      "inputs": [
        {
          "internalType": "address",
          "name": "",
          "type": "address"
        }
      ],
      "name": "backers",
      "outputs": [
        {
          "internalType": "uint256",
          "name": "totalContribution",
          "type": "uint256"
        }
      ],
      "stateMutability": "view",
      "type": "function"
    },
    {
      "inputs": [],
      "name": "deadline",
      "outputs": [
        {
          "internalType": "uint256",
          "name": "",
          "type": "uint256"
        }
      ],
      "stateMutability": "view",
      "type": "function"
    },
    {
      "inputs": [],
      "name": "description",
      "outputs": [
        {
          "internalType": "string",
          "name": "",
          "type": "string"
        }
      ],
      "stateMutability": "view",
      "type": "function"
    },
    {
      "inputs": [
        {
          "internalType": "uint256",
          "name": "_daysToAdd",
          "type": "uint256"
        }
      ],
      "name": "extendDeadline",
      "outputs": [],
      "stateMutability": "nonpayable",
      "type": "function"
    },
    {
      "inputs": [
        {
          "internalType": "uint256",
          "name": "_tierIndex",
          "type": "uint256"
        }
      ],
      "name": "fund",
      "outputs": [],
      "stateMutability": "payable",
      "type": "function"
    },
    {
      "inputs": [],
      "name": "getCampaignStatus",
      "outputs": [
        {
          "internalType": "enum Crowdfunding.CampaignState",
          "name": "",
          "type": "uint8"
        }
      ],
      "stateMutability": "view",
      "type": "function"
    },
    {
      "inputs": [],
      "name": "getContractBalance",
      "outputs": [
        {
          "internalType": "uint256",
          "name": "",
          "type": "uint256"
        }
      ],
      "stateMutability": "view",
      "type": "function"
    },
    {
      "inputs": [],
      "name": "getTiers",
      "outputs": [
        {
          "components": [
            {
              "internalType": "string",
              "name": "name",
              "type": "string"
            },
            {
              "internalType": "uint256",
              "name": "amount",
              "type": "uint256"
            },
            {
              "internalType": "uint256",
              "name": "backers",
              "type": "uint256"
            }
          ],
          "internalType": "struct Crowdfunding.Tier[]",
          "name": "",
          "type": "tuple[]"
        }
      ],
      "stateMutability": "view",
      "type": "function"
    },
    {
      "inputs": [],
      "name": "goal",
      "outputs": [
        {
          "internalType": "uint256",
          "name": "",
          "type": "uint256"
        }
      ],
      "stateMutability": "view",
      "type": "function"
    },
    {
      "inputs": [
        {
          "internalType": "address",
          "name": "_backer",
          "type": "address"
        },
        {
          "internalType": "uint256",
          "name": "_tierIndex",
          "type": "uint256"
        }
      ],
      "name": "hasFundedTier",
      "outputs": [
        {
          "internalType": "bool",
          "name": "",
          "type": "bool"
        }
      ],
      "stateMutability": "view",
      "type": "function"
    },
    {
      "inputs": [],
      "name": "name",
      "outputs": [
        {
          "internalType": "string",
          "name": "",
          "type": "string"
        }
      ],
      "stateMutability": "view",
      "type": "function"
    },
    {
      "inputs": [],
      "name": "owner",
      "outputs": [
        {
          "internalType": "address",
          "name": "",
          "type": "address"
        }
      ],
      "stateMutability": "view",
      "type": "function"
    },
    {
      "inputs": [],
      "name": "paused",
      "outputs": [
        {
          "internalType": "bool",
          "name": "",
          "type": "bool"
        }
      ],
      "stateMutability": "view",
      "type": "function"
    },
    {
      "inputs": [],
      "name": "refund",
      "outputs": [],
      "stateMutability": "nonpayable",
      "type": "function"
    },
    {
      "inputs": [
        {
          "internalType": "uint256",
          "name": "_index",
          "type": "uint256"
        }
      ],
      "name": "removeTier",
      "outputs": [],
      "stateMutability": "nonpayable",
      "type": "function"
    },
    {
      "inputs": [],
      "name": "state",
      "outputs": [
        {
          "internalType": "enum Crowdfunding.CampaignState",
          "name": "",
          "type": "uint8"
        }
      ],
      "stateMutability": "view",
      "type": "function"
    },
    {
      "inputs": [
        {
          "internalType": "uint256",
          "name": "",
          "type": "uint256"
        }
      ],
      "name": "tiers",
      "outputs": [
        {
          "internalType": "string",
          "name": "name",
          "type": "string"
        },
        {
          "internalType": "uint256",
          "name": "amount",
          "type": "uint256"
        },
        {
          "internalType": "uint256",
          "name": "backers",
          "type": "uint256"
        }
      ],
      "stateMutability": "view",
      "type": "function"
    },
    {
      "inputs": [],
      "name": "togglePause",
      "outputs": [],
      "stateMutability": "nonpayable",
      "type": "function"
    },
    {
      "inputs": [],
      "name": "withdraw",
      "outputs": [],
      "stateMutability": "nonpayable",
      "type": "function"
    }
  ],
  "bytecode": "0x608060405234801561001057600080fd5b5060405161181b38038061181b83398101604081905261002f9161014d565b600061003b8582610271565b5060016100488482610271565b50600282905561005b8162015180610345565b6100659042610362565b600355505060048054600161ff0160a01b0319166001600160a01b039490941693909317909255506103759050565b634e487b7160e01b600052604160045260246000fd5b600082601f8301126100bb57600080fd5b81516001600160401b038111156100d4576100d4610094565b604051601f8201601f19908116603f011681016001600160401b038111828210171561010257610102610094565b60405281815283820160200185101561011a57600080fd5b60005b828110156101395760208186018101518383018201520161011d565b506000918101602001919091529392505050565b600080600080600060a0868803121561016557600080fd5b85516001600160a01b038116811461017c57600080fd5b60208701519095506001600160401b0381111561019857600080fd5b6101a4888289016100aa565b604088015190955090506001600160401b038111156101c257600080fd5b6101ce888289016100aa565b606088015160809098015196999598509695949350505050565b600181811c908216806101fc57607f821691505b60208210810361021c57634e487b7160e01b600052602260045260246000fd5b50919050565b601f82111561026c57806000526020600020601f840160051c810160208510156102495750805b601f840160051c820191505b818110156102695760008155600101610255565b50505b505050565b81516001600160401b0381111561028a5761028a610094565b61029e8161029884546101e8565b84610222565b6020601f8211600181146102d257600083156102ba5750848201515b600019600385901b1c1916600184901b178455610269565b600084815260208120601f198516915b8281101561030257878501518255602094850194600190920191016102e2565b50848210156103205786840151600019600387901b60f8161c191681555b50505050600190811b01905550565b634e487b7160e01b600052601160045260246000fd5b808202811582820484141761035c5761035c61032f565b92915050565b8082018082111561035c5761035c61032f565b611497806103846000396000f3fe60806040526004361061011f5760003560e01c80637284e416116100a0578063b85dfb8011610064578063b85dfb8014610317578063c19d93fb14610344578063c4ae316814610365578063ca1d209d1461037a578063de1705701461038d57600080fd5b80637284e4161461026a5780637497211b1461027f5780637adba5271461029f5780638da5cb5b146102bf5780638ece7b91146102f757600080fd5b80633ccfd60b116100e75780633ccfd60b146101e657806340193883146101fb578063590e1ae3146102115780635c975abb146102265780636f9fb98a1461025757600080fd5b8063039af9eb1461012457806306fdde031461015c578063105505151461017e57806329dcb0cf146101a0578063389b7533146101c4575b600080fd5b34801561013057600080fd5b5061014461013f366004610eef565b6103af565b60405161015393929190610f4e565b60405180910390f35b34801561016857600080fd5b50610171610471565b6040516101539190610f73565b34801561018a57600080fd5b506101936104ff565b6040516101539190610fa3565b3480156101ac57600080fd5b506101b660035481565b604051908152602001610153565b3480156101d057600080fd5b506101e46101df366004610eef565b61055a565b005b3480156101f257600080fd5b506101e4610620565b34801561020757600080fd5b506101b660025481565b34801561021d57600080fd5b506101e4610754565b34801561023257600080fd5b5060045461024790600160a01b900460ff1681565b6040519015158152602001610153565b34801561026357600080fd5b50476101b6565b34801561027657600080fd5b5061017161086b565b34801561028b57600080fd5b506101e461029a366004610eef565b610878565b3480156102ab57600080fd5b506102476102ba366004610fe7565b6109b7565b3480156102cb57600080fd5b506004546102df906001600160a01b031681565b6040516001600160a01b039091168152602001610153565b34801561030357600080fd5b506101e4610312366004611027565b6109e8565b34801561032357600080fd5b506101b66103323660046110e2565b60066020526000908152604090205481565b34801561035057600080fd5b5060045461019390600160a81b900460ff1681565b34801561037157600080fd5b506101e4610adb565b6101e4610388366004610eef565b610b26565b34801561039957600080fd5b506103a2610d1e565b60405161015391906110fd565b600581815481106103bf57600080fd5b90600052602060002090600302016000915090508060000180546103e290611182565b80601f016020809104026020016040519081016040528092919081815260200182805461040e90611182565b801561045b5780601f106104305761010080835404028352916020019161045b565b820191906000526020600020905b81548152906001019060200180831161043e57829003601f168201915b5050505050908060010154908060020154905083565b6000805461047e90611182565b80601f01602080910402602001604051908101604052809291908181526020018280546104aa90611182565b80156104f75780601f106104cc576101008083540402835291602001916104f7565b820191906000526020600020905b8154815290600101906020018083116104da57829003601f168201915b505050505081565b600080600454600160a81b900460ff16600281111561052057610520610f8d565b14801561052e575060035442115b15610549576002544710156105435750600290565b50600190565b50600454600160a81b900460ff1690565b6004546001600160a01b0316331461058d5760405162461bcd60e51b8152600401610584906111bc565b60405180910390fd5b6000600454600160a81b900460ff1660028111156105ad576105ad610f8d565b146105fa5760405162461bcd60e51b815260206004820152601d60248201527f43616d706169676e207374617465206973206e6f7420616374697665200000006044820152606401610584565b61060781620151806111f9565b600360008282546106189190611210565b909155505050565b6004546001600160a01b0316331461064a5760405162461bcd60e51b8152600401610584906111bc565b610652610e23565b6001600454600160a81b900460ff16600281111561067257610672610f8d565b146106cf5760405162461bcd60e51b815260206004820152602760248201527f43616d706169676e206d757374206265207375636365737366756c20746f20776044820152666974686472617760c81b6064820152608401610584565b47806107165760405162461bcd60e51b81526020600482015260166024820152754e6f2062616c616e636520746f207769746864726f7760501b6044820152606401610584565b6004546040516001600160a01b039091169082156108fc029083906000818181858888f19350505050158015610750573d6000803e3d6000fd5b5050565b61075c610e23565b6002600454600160a81b900460ff16600281111561077c5761077c610f8d565b146107d35760405162461bcd60e51b815260206004820152602160248201527f43616d706169676e206d757374206265206661696c656420746f20726566756e6044820152601960fa1b6064820152608401610584565b33600090815260066020526040902054806108305760405162461bcd60e51b815260206004820152601960248201527f4e6f20636f6e747269627574696f6e20746f20726566756e64000000000000006044820152606401610584565b336000818152600660205260408082208290555183156108fc0291849190818181858888f19350505050158015610750573d6000803e3d6000fd5b6001805461047e90611182565b6004546001600160a01b031633146108a25760405162461bcd60e51b8152600401610584906111bc565b60055481106109015760405162461bcd60e51b815260206004820152602560248201527f496e76616c6964207469657220696e6465782c205469657220646f206e6f7420604482015264195e1a5cdd60da1b6064820152608401610584565b6005805461091190600190611223565b8154811061092157610921611236565b90600052602060002090600302016005828154811061094257610942611236565b600091825260209091206003909102018061095d838261129b565b506001828101549082015560029182015491015560058054806109825761098261137b565b600082815260208120600019909201916003830201906109a28282610ea1565b50600060018201819055600290910155905550565b6001600160a01b038216600090815260066020908152604080832084845260010190915290205460ff165b92915050565b6004546001600160a01b03163314610a125760405162461bcd60e51b8152600401610584906111bc565b60008111610a625760405162461bcd60e51b815260206004820152601f60248201527f4d7573742066756e6420616d6f756e7420686967686572207468616e20302e006044820152606401610584565b60408051606081018252838152602081018390526000918101829052600580546001810182559252805190916003027f036b6384b5eca791c62761152d0c79bb0604c104a5fb6f4eb0703f3154bb3db001908190610ac09082611391565b50602082015181600101556040820151816002015550505050565b6004546001600160a01b03163314610b055760405162461bcd60e51b8152600401610584906111bc565b6004805460ff60a01b198116600160a01b9182900460ff1615909102179055565b6000600454600160a81b900460ff166002811115610b4657610b46610f8d565b14610b935760405162461bcd60e51b815260206004820152601d60248201527f43616d706169676e207374617465206973206e6f7420616374697665200000006044820152606401610584565b600454600160a01b900460ff1615610be25760405162461bcd60e51b815260206004820152601260248201527110d85b5c185a59db881a5cc81c185d5cd95960721b6044820152606401610584565b6005548110610c285760405162461bcd60e51b8152602060048201526012602482015271092dcecc2d8d2c840e8d2cae440d2dcc8caf60731b6044820152606401610584565b60058181548110610c3b57610c3b611236565b9060005260206000209060030201600101543414610c8e5760405162461bcd60e51b815260206004820152601060248201526f125b98dbdc9c9958dd08185b5bdd5b9d60821b6044820152606401610584565b60058181548110610ca157610ca1611236565b600091825260208220600260039092020101805491610cbf83611448565b90915550503360009081526006602052604081208054349290610ce3908490611210565b90915550503360009081526006602090815260408083208484526001908101909252909120805460ff19169091179055610d1b610e23565b50565b60606005805480602002602001604051908101604052809291908181526020016000905b82821015610e1a5783829060005260206000209060030201604051806060016040529081600082018054610d7590611182565b80601f0160208091040260200160405190810160405280929190818152602001828054610da190611182565b8015610dee5780601f10610dc357610100808354040283529160200191610dee565b820191906000526020600020905b815481529060010190602001808311610dd157829003601f168201915b505050505081526020016001820154815260200160028201548152505081526020019060010190610d42565b50505050905090565b6000600454600160a81b900460ff166002811115610e4357610e43610f8d565b03610e9f576003544210610e8e57600254471015610e62576002610e65565b60015b6004805460ff60a81b1916600160a81b836002811115610e8757610e87610f8d565b0217905550565b600254471015610e62576000610e65565b565b508054610ead90611182565b6000825580601f10610ebd575050565b601f016020900490600052602060002090810190610d1b91905b80821115610eeb5760008155600101610ed7565b5090565b600060208284031215610f0157600080fd5b5035919050565b6000815180845260005b81811015610f2e57602081850181015186830182015201610f12565b506000602082860101526020601f19601f83011685010191505092915050565b606081526000610f616060830186610f08565b60208301949094525060400152919050565b602081526000610f866020830184610f08565b9392505050565b634e487b7160e01b600052602160045260246000fd5b6020810160038310610fc557634e487b7160e01b600052602160045260246000fd5b91905290565b80356001600160a01b0381168114610fe257600080fd5b919050565b60008060408385031215610ffa57600080fd5b61100383610fcb565b946020939093013593505050565b634e487b7160e01b600052604160045260246000fd5b6000806040838503121561103a57600080fd5b823567ffffffffffffffff81111561105157600080fd5b8301601f8101851361106257600080fd5b803567ffffffffffffffff81111561107c5761107c611011565b604051601f8201601f19908116603f0116810167ffffffffffffffff811182821017156110ab576110ab611011565b6040528181528282016020018710156110c357600080fd5b8160208401602083013760006020928201830152969401359450505050565b6000602082840312156110f457600080fd5b610f8682610fcb565b6000602082016020835280845180835260408501915060408160051b86010192506020860160005b8281101561117657603f19878603018452815180516060875261114b6060880182610f08565b6020838101518982015260409384015193909801929092525094938401939190910190600101611125565b50929695505050505050565b600181811c9082168061119657607f821691505b6020821081036111b657634e487b7160e01b600052602260045260246000fd5b50919050565b6020808252600d908201526c2737ba103a34329037bbb732b960991b604082015260600190565b634e487b7160e01b600052601160045260246000fd5b80820281158282048414176109e2576109e26111e3565b808201808211156109e2576109e26111e3565b818103818111156109e2576109e26111e3565b634e487b7160e01b600052603260045260246000fd5b601f82111561129657806000526020600020601f840160051c810160208510156112735750805b601f840160051c820191505b81811015611293576000815560010161127f565b50505b505050565b8181036112a6575050565b6112b08254611182565b67ffffffffffffffff8111156112c8576112c8611011565b6112dc816112d68454611182565b8461124c565b6000601f82116001811461131357600083156112f85750848201545b600184901b600019600386901b1c198216175b855550611293565b600085815260209020601f19841690600086815260209020845b8381101561134d578286015482556001958601959091019060200161132d565b508583101561136b5781850154600019600388901b60f8161c191681555b5050505050600190811b01905550565b634e487b7160e01b600052603160045260246000fd5b815167ffffffffffffffff8111156113ab576113ab611011565b6113b9816112d68454611182565b6020601f8211600181146113eb57600083156112f8575081850151600184901b600019600386901b1c1982161761130b565b600084815260208120601f198516915b8281101561141b57878501518255602094850194600190920191016113fb565b50848210156114395786840151600019600387901b60f8161c191681555b50505050600190811b01905550565b60006001820161145a5761145a6111e3565b506001019056fea26469706673582212202481ef2fb454009b099ff122dd70dd9a66598d0a83e398ce256cd40d3cf2805964736f6c634300081e0033",
  "linkReferences": {},
  "deployedLinkReferences": {}
}