{
  "_format": "hh-sol-artifact-1",
  "contractName": "Crowdfunding",
  "sourceName": "contracts/Crowdfunding.sol",
  "abi": [
    {
      "inputs": [
        {
          "internalType": "address",
          "name": "_owner",
          "type": "address"
        },
        {
          "internalType": "string",
          "name": "_name",
          "type": "string"
        },
        {
          "internalType": "string",
          "name": "_description",
          "type": "string"
        },
        {
          "internalType": "uint256",
          "name": "_goal",
          "type": "uint256"
        },
        {
          "internalType": "uint256",
          "name": "_durationInDays",
          "type": "uint256"
        }
      ],
      "stateMutability": "nonpayable",
      "type": "constructor"
    },
    {
      "inputs": [
        {
          "internalType": "string",
          "name": "_name",
          "type": "string"
        },
        {
          "internalType": "uint256",
          "name": "_amount",
          "type": "uint256"
        }
      ],
      "name": "addTier",
      "outputs": [],
      "stateMutability": "nonpayable",
      "type": "function"
    },
    {
      "inputs": [
        {
          "internalType": "address",
          "name": "",
          "type": "address"
        }
      ],
      "name": "backers",
      "outputs": [
        {
          "internalType": "uint256",
          "name": "totalContribution",
          "type": "uint256"
        }
      ],
      "stateMutability": "view",
      "type": "function"
    },
    {
      "inputs": [],
      "name": "clearSelectedTiers",
      "outputs": [],
      "stateMutability": "nonpayable",
      "type": "function"
    },
    {
      "inputs": [],
      "name": "deadline",
      "outputs": [
        {
          "internalType": "uint256",
          "name": "",
          "type": "uint256"
        }
      ],
      "stateMutability": "view",
      "type": "function"
    },
    {
      "inputs": [],
      "name": "description",
      "outputs": [
        {
          "internalType": "string",
          "name": "",
          "type": "string"
        }
      ],
      "stateMutability": "view",
      "type": "function"
    },
    {
      "inputs": [
        {
          "internalType": "uint256",
          "name": "_daysToAdd",
          "type": "uint256"
        }
      ],
      "name": "extendDeadline",
      "outputs": [],
      "stateMutability": "nonpayable",
      "type": "function"
    },
    {
      "inputs": [
        {
          "internalType": "uint256",
          "name": "_tierIndex",
          "type": "uint256"
        }
      ],
      "name": "fund",
      "outputs": [],
      "stateMutability": "payable",
      "type": "function"
    },
    {
      "inputs": [],
      "name": "getCampaignStatus",
      "outputs": [
        {
          "internalType": "enum Crowdfunding.CampaignState",
          "name": "",
          "type": "uint8"
        }
      ],
      "stateMutability": "view",
      "type": "function"
    },
    {
      "inputs": [],
      "name": "getContractBalance",
      "outputs": [
        {
          "internalType": "uint256",
          "name": "",
          "type": "uint256"
        }
      ],
      "stateMutability": "view",
      "type": "function"
    },
    {
      "inputs": [],
      "name": "getSelectedTierIndices",
      "outputs": [
        {
          "internalType": "uint256[]",
          "name": "",
          "type": "uint256[]"
        }
      ],
      "stateMutability": "view",
      "type": "function"
    },
    {
      "inputs": [],
      "name": "getSelectedTiers",
      "outputs": [
        {
          "components": [
            {
              "internalType": "string",
              "name": "name",
              "type": "string"
            },
            {
              "internalType": "uint256",
              "name": "amount",
              "type": "uint256"
            },
            {
              "internalType": "uint256",
              "name": "backers",
              "type": "uint256"
            }
          ],
          "internalType": "struct Crowdfunding.Tier[]",
          "name": "",
          "type": "tuple[]"
        }
      ],
      "stateMutability": "view",
      "type": "function"
    },
    {
      "inputs": [],
      "name": "getTiers",
      "outputs": [
        {
          "components": [
            {
              "internalType": "string",
              "name": "name",
              "type": "string"
            },
            {
              "internalType": "uint256",
              "name": "amount",
              "type": "uint256"
            },
            {
              "internalType": "uint256",
              "name": "backers",
              "type": "uint256"
            }
          ],
          "internalType": "struct Crowdfunding.Tier[]",
          "name": "",
          "type": "tuple[]"
        }
      ],
      "stateMutability": "view",
      "type": "function"
    },
    {
      "inputs": [],
      "name": "goal",
      "outputs": [
        {
          "internalType": "uint256",
          "name": "",
          "type": "uint256"
        }
      ],
      "stateMutability": "view",
      "type": "function"
    },
    {
      "inputs": [
        {
          "internalType": "address",
          "name": "_backer",
          "type": "address"
        },
        {
          "internalType": "uint256",
          "name": "_tierIndex",
          "type": "uint256"
        }
      ],
      "name": "hasFundedTier",
      "outputs": [
        {
          "internalType": "bool",
          "name": "",
          "type": "bool"
        }
      ],
      "stateMutability": "view",
      "type": "function"
    },
    {
      "inputs": [],
      "name": "name",
      "outputs": [
        {
          "internalType": "string",
          "name": "",
          "type": "string"
        }
      ],
      "stateMutability": "view",
      "type": "function"
    },
    {
      "inputs": [],
      "name": "owner",
      "outputs": [
        {
          "internalType": "address",
          "name": "",
          "type": "address"
        }
      ],
      "stateMutability": "view",
      "type": "function"
    },
    {
      "inputs": [],
      "name": "paused",
      "outputs": [
        {
          "internalType": "bool",
          "name": "",
          "type": "bool"
        }
      ],
      "stateMutability": "view",
      "type": "function"
    },
    {
      "inputs": [],
      "name": "refund",
      "outputs": [],
      "stateMutability": "nonpayable",
      "type": "function"
    },
    {
      "inputs": [
        {
          "internalType": "uint256",
          "name": "_index",
          "type": "uint256"
        }
      ],
      "name": "removeTier",
      "outputs": [],
      "stateMutability": "nonpayable",
      "type": "function"
    },
    {
      "inputs": [
        {
          "internalType": "uint256",
          "name": "",
          "type": "uint256"
        }
      ],
      "name": "selectedTierIndices",
      "outputs": [
        {
          "internalType": "uint256",
          "name": "",
          "type": "uint256"
        }
      ],
      "stateMutability": "view",
      "type": "function"
    },
    {
      "inputs": [
        {
          "internalType": "uint256[]",
          "name": "_tierIndices",
          "type": "uint256[]"
        }
      ],
      "name": "setSelectedTiers",
      "outputs": [],
      "stateMutability": "nonpayable",
      "type": "function"
    },
    {
      "inputs": [],
      "name": "state",
      "outputs": [
        {
          "internalType": "enum Crowdfunding.CampaignState",
          "name": "",
          "type": "uint8"
        }
      ],
      "stateMutability": "view",
      "type": "function"
    },
    {
      "inputs": [
        {
          "internalType": "uint256",
          "name": "",
          "type": "uint256"
        }
      ],
      "name": "tiers",
      "outputs": [
        {
          "internalType": "string",
          "name": "name",
          "type": "string"
        },
        {
          "internalType": "uint256",
          "name": "amount",
          "type": "uint256"
        },
        {
          "internalType": "uint256",
          "name": "backers",
          "type": "uint256"
        }
      ],
      "stateMutability": "view",
      "type": "function"
    },
    {
      "inputs": [],
      "name": "togglePause",
      "outputs": [],
      "stateMutability": "nonpayable",
      "type": "function"
    },
    {
      "inputs": [],
      "name": "withdraw",
      "outputs": [],
      "stateMutability": "nonpayable",
      "type": "function"
    }
  ],
  "bytecode": "0x608060405234801561001057600080fd5b506040516120ce3803806120ce83398101604081905261002f9161014d565b600061003b8582610271565b5060016100488482610271565b50600282905561005b8162015180610345565b6100659042610362565b600355505060048054600161ff0160a01b0319166001600160a01b039490941693909317909255506103759050565b634e487b7160e01b600052604160045260246000fd5b600082601f8301126100bb57600080fd5b81516001600160401b038111156100d4576100d4610094565b604051601f8201601f19908116603f011681016001600160401b038111828210171561010257610102610094565b60405281815283820160200185101561011a57600080fd5b60005b828110156101395760208186018101518383018201520161011d565b506000918101602001919091529392505050565b600080600080600060a0868803121561016557600080fd5b85516001600160a01b038116811461017c57600080fd5b60208701519095506001600160401b0381111561019857600080fd5b6101a4888289016100aa565b604088015190955090506001600160401b038111156101c257600080fd5b6101ce888289016100aa565b606088015160809098015196999598509695949350505050565b600181811c908216806101fc57607f821691505b60208210810361021c57634e487b7160e01b600052602260045260246000fd5b50919050565b601f82111561026c57806000526020600020601f840160051c810160208510156102495750805b601f840160051c820191505b818110156102695760008155600101610255565b50505b505050565b81516001600160401b0381111561028a5761028a610094565b61029e8161029884546101e8565b84610222565b6020601f8211600181146102d257600083156102ba5750848201515b600019600385901b1c1916600184901b178455610269565b600084815260208120601f198516915b8281101561030257878501518255602094850194600190920191016102e2565b50848210156103205786840151600019600387901b60f8161c191681555b50505050600190811b01905550565b634e487b7160e01b600052601160045260246000fd5b808202811582820484141761035c5761035c61032f565b92915050565b8082018082111561035c5761035c61032f565b611d4a806103846000396000f3fe6080604052600436106101665760003560e01c80637adba527116100d1578063c4ae31681161008a578063ddb6a7fc11610064578063ddb6a7fc1461040b578063de1705701461042b578063e7c0a91414610440578063fcd51c941461046057600080fd5b8063c4ae3168146103ce578063ca1d209d146103e3578063d8b6912e146103f657600080fd5b80637adba527146102e65780638da5cb5b146103065780638ece7b911461033e5780639cd5e4801461035e578063b85dfb8014610380578063c19d93fb146103ad57600080fd5b806340193883116101235780634019388314610242578063590e1ae3146102585780635c975abb1461026d5780636f9fb98a1461029e5780637284e416146102b15780637497211b146102c657600080fd5b8063039af9eb1461016b57806306fdde03146101a357806310550515146101c557806329dcb0cf146101e7578063389b75331461020b5780633ccfd60b1461022d575b600080fd5b34801561017757600080fd5b5061018b6101863660046116a3565b610482565b60405161019a93929190611702565b60405180910390f35b3480156101af57600080fd5b506101b8610544565b60405161019a9190611727565b3480156101d157600080fd5b506101da6105d2565b60405161019a9190611757565b3480156101f357600080fd5b506101fd60035481565b60405190815260200161019a565b34801561021757600080fd5b5061022b6102263660046116a3565b61062d565b005b34801561023957600080fd5b5061022b6106f3565b34801561024e57600080fd5b506101fd60025481565b34801561026457600080fd5b5061022b610827565b34801561027957600080fd5b5060045461028e90600160a01b900460ff1681565b604051901515815260200161019a565b3480156102aa57600080fd5b50476101fd565b3480156102bd57600080fd5b506101b861093e565b3480156102d257600080fd5b5061022b6102e13660046116a3565b61094b565b3480156102f257600080fd5b5061028e61030136600461179b565b610aac565b34801561031257600080fd5b50600454610326906001600160a01b031681565b6040516001600160a01b03909116815260200161019a565b34801561034a57600080fd5b5061022b61035936600461180c565b610add565b34801561036a57600080fd5b50610373610bd0565b60405161019a91906118a8565b34801561038c57600080fd5b506101fd61039b36600461192d565b60076020526000908152604090205481565b3480156103b957600080fd5b506004546101da90600160a81b900460ff1681565b3480156103da57600080fd5b5061022b610e7d565b61022b6103f13660046116a3565b610ec8565b34801561040257600080fd5b5061022b6110c0565b34801561041757600080fd5b5061022b610426366004611948565b6110f8565b34801561043757600080fd5b506103736111ab565b34801561044c57600080fd5b506101fd61045b3660046116a3565b6112a7565b34801561046c57600080fd5b506104756112c8565b60405161019a91906119f9565b6005818154811061049257600080fd5b90600052602060002090600302016000915090508060000180546104b590611a3c565b80601f01602080910402602001604051908101604052809291908181526020018280546104e190611a3c565b801561052e5780601f106105035761010080835404028352916020019161052e565b820191906000526020600020905b81548152906001019060200180831161051157829003601f168201915b5050505050908060010154908060020154905083565b6000805461055190611a3c565b80601f016020809104026020016040519081016040528092919081815260200182805461057d90611a3c565b80156105ca5780601f1061059f576101008083540402835291602001916105ca565b820191906000526020600020905b8154815290600101906020018083116105ad57829003601f168201915b505050505081565b600080600454600160a81b900460ff1660028111156105f3576105f3611741565b148015610601575060035442115b1561061c576002544710156106165750600290565b50600190565b50600454600160a81b900460ff1690565b6004546001600160a01b031633146106605760405162461bcd60e51b815260040161065790611a70565b60405180910390fd5b6000600454600160a81b900460ff16600281111561068057610680611741565b146106cd5760405162461bcd60e51b815260206004820152601d60248201527f43616d706169676e207374617465206973206e6f7420616374697665200000006044820152606401610657565b6106da8162015180611aad565b600360008282546106eb9190611ac4565b909155505050565b6004546001600160a01b0316331461071d5760405162461bcd60e51b815260040161065790611a70565b610725611320565b6001600454600160a81b900460ff16600281111561074557610745611741565b146107a25760405162461bcd60e51b815260206004820152602760248201527f43616d706169676e206d757374206265207375636365737366756c20746f20776044820152666974686472617760c81b6064820152608401610657565b47806107e95760405162461bcd60e51b81526020600482015260166024820152754e6f2062616c616e636520746f207769746864726f7760501b6044820152606401610657565b6004546040516001600160a01b039091169082156108fc029083906000818181858888f19350505050158015610823573d6000803e3d6000fd5b5050565b61082f611320565b6002600454600160a81b900460ff16600281111561084f5761084f611741565b146108a65760405162461bcd60e51b815260206004820152602160248201527f43616d706169676e206d757374206265206661696c656420746f20726566756e6044820152601960fa1b6064820152608401610657565b33600090815260076020526040902054806109035760405162461bcd60e51b815260206004820152601960248201527f4e6f20636f6e747269627574696f6e20746f20726566756e64000000000000006044820152606401610657565b336000818152600760205260408082208290555183156108fc0291849190818181858888f19350505050158015610823573d6000803e3d6000fd5b6001805461055190611a3c565b6004546001600160a01b031633146109755760405162461bcd60e51b815260040161065790611a70565b60055481106109d45760405162461bcd60e51b815260206004820152602560248201527f496e76616c6964207469657220696e6465782c205469657220646f206e6f7420604482015264195e1a5cdd60da1b6064820152608401610657565b6109dd8161139c565b6005546000906109ef90600190611ad7565b9050808214610a655760058181548110610a0b57610a0b611aea565b906000526020600020906003020160058381548110610a2c57610a2c611aea565b6000918252602090912060039091020180610a478382611b4e565b5060018281015490820155600291820154910155610a658183611588565b6005805480610a7657610a76611c2e565b60008281526020812060001990920191600383020190610a9682826115eb565b5060006001820181905560029091015590555050565b6001600160a01b038216600090815260076020908152604080832084845260010190915290205460ff165b92915050565b6004546001600160a01b03163314610b075760405162461bcd60e51b815260040161065790611a70565b60008111610b575760405162461bcd60e51b815260206004820152601f60248201527f4d7573742066756e6420616d6f756e7420686967686572207468616e20302e006044820152606401610657565b60408051606081018252838152602081018390526000918101829052600580546001810182559252805190916003027f036b6384b5eca791c62761152d0c79bb0604c104a5fb6f4eb0703f3154bb3db001908190610bb59082611c44565b50602082015181600101556040820151816002015550505050565b600654606090600003610ce0576005805480602002602001604051908101604052809291908181526020016000905b82821015610cd75783829060005260206000209060030201604051806060016040529081600082018054610c3290611a3c565b80601f0160208091040260200160405190810160405280929190818152602001828054610c5e90611a3c565b8015610cab5780601f10610c8057610100808354040283529160200191610cab565b820191906000526020600020905b815481529060010190602001808311610c8e57829003601f168201915b505050505081526020016001820154815260200160028201548152505081526020019060010190610bff565b50505050905090565b60065460009067ffffffffffffffff811115610cfe57610cfe6117c5565b604051908082528060200260200182016040528015610d5357816020015b610d4060405180606001604052806060815260200160008152602001600081525090565b815260200190600190039081610d1c5790505b50905060005b600654811015610e7757600560068281548110610d7857610d78611aea565b906000526020600020015481548110610d9357610d93611aea565b9060005260206000209060030201604051806060016040529081600082018054610dbc90611a3c565b80601f0160208091040260200160405190810160405280929190818152602001828054610de890611a3c565b8015610e355780601f10610e0a57610100808354040283529160200191610e35565b820191906000526020600020905b815481529060010190602001808311610e1857829003601f168201915b5050505050815260200160018201548152602001600282015481525050828281518110610e6457610e64611aea565b6020908102919091010152600101610d59565b50919050565b6004546001600160a01b03163314610ea75760405162461bcd60e51b815260040161065790611a70565b6004805460ff60a01b198116600160a01b9182900460ff1615909102179055565b6000600454600160a81b900460ff166002811115610ee857610ee8611741565b14610f355760405162461bcd60e51b815260206004820152601d60248201527f43616d706169676e207374617465206973206e6f7420616374697665200000006044820152606401610657565b600454600160a01b900460ff1615610f845760405162461bcd60e51b815260206004820152601260248201527110d85b5c185a59db881a5cc81c185d5cd95960721b6044820152606401610657565b6005548110610fca5760405162461bcd60e51b8152602060048201526012602482015271092dcecc2d8d2c840e8d2cae440d2dcc8caf60731b6044820152606401610657565b60058181548110610fdd57610fdd611aea565b90600052602060002090600302016001015434146110305760405162461bcd60e51b815260206004820152601060248201526f125b98dbdc9c9958dd08185b5bdd5b9d60821b6044820152606401610657565b6005818154811061104357611043611aea565b60009182526020822060026003909202010180549161106183611cfb565b90915550503360009081526007602052604081208054349290611085908490611ac4565b90915550503360009081526007602090815260408083208484526001908101909252909120805460ff191690911790556110bd611320565b50565b6004546001600160a01b031633146110ea5760405162461bcd60e51b815260040161065790611a70565b6110f660066000611625565b565b6004546001600160a01b031633146111225760405162461bcd60e51b815260040161065790611a70565b60005b815181101561119757600554825183908390811061114557611145611aea565b60200260200101511061118f5760405162461bcd60e51b8152602060048201526012602482015271092dcecc2d8d2c840e8d2cae440d2dcc8caf60731b6044820152606401610657565b600101611125565b508051610823906006906020840190611643565b60606005805480602002602001604051908101604052809291908181526020016000905b82821015610cd7578382906000526020600020906003020160405180606001604052908160008201805461120290611a3c565b80601f016020809104026020016040519081016040528092919081815260200182805461122e90611a3c565b801561127b5780601f106112505761010080835404028352916020019161127b565b820191906000526020600020905b81548152906001019060200180831161125e57829003601f168201915b5050505050815260200160018201548152602001600282015481525050815260200190600101906111cf565b600681815481106112b757600080fd5b600091825260209091200154905081565b6060600680548060200260200160405190810160405280929190818152602001828054801561131657602002820191906000526020600020905b815481526020019060010190808311611302575b5050505050905090565b6000600454600160a81b900460ff16600281111561134057611340611741565b036110f657600354421061138b5760025447101561135f576002611362565b60015b6004805460ff60a81b1916600160a81b83600281111561138457611384611741565b0217905550565b60025447101561135f576000611362565b60065460009067ffffffffffffffff8111156113ba576113ba6117c5565b6040519080825280602002602001820160405280156113e3578160200160208202803683370190505b5090506000805b6006548110156114dd57836006828154811061140857611408611aea565b9060005260206000200154146114d557836006828154811061142c5761142c611aea565b9060005260206000200154111561148a5760016006828154811061145257611452611aea565b90600052602060002001546114679190611ad7565b83838151811061147957611479611aea565b6020026020010181815250506114c7565b6006818154811061149d5761149d611aea565b90600052602060002001548383815181106114ba576114ba611aea565b6020026020010181815250505b816114d181611cfb565b9250505b6001016113ea565b508067ffffffffffffffff8111156114f7576114f76117c5565b604051908082528060200260200182016040528015611520578160200160208202803683370190505b50805161153591600691602090910190611643565b5060005b818110156115825782818151811061155357611553611aea565b60200260200101516006828154811061156e5761156e611aea565b600091825260209091200155600101611539565b50505050565b60005b6006548110156115e65782600682815481106115a9576115a9611aea565b9060005260206000200154036115de5781600682815481106115cd576115cd611aea565b600091825260209091200155505050565b60010161158b565b505050565b5080546115f790611a3c565b6000825580601f10611607575050565b601f0160209004906000526020600020908101906110bd919061168e565b50805460008255906000526020600020908101906110bd919061168e565b82805482825590600052602060002090810192821561167e579160200282015b8281111561167e578251825591602001919060010190611663565b5061168a92915061168e565b5090565b5b8082111561168a576000815560010161168f565b6000602082840312156116b557600080fd5b5035919050565b6000815180845260005b818110156116e2576020818501810151868301820152016116c6565b506000602082860101526020601f19601f83011685010191505092915050565b60608152600061171560608301866116bc565b60208301949094525060400152919050565b60208152600061173a60208301846116bc565b9392505050565b634e487b7160e01b600052602160045260246000fd5b602081016003831061177957634e487b7160e01b600052602160045260246000fd5b91905290565b80356001600160a01b038116811461179657600080fd5b919050565b600080604083850312156117ae57600080fd5b6117b78361177f565b946020939093013593505050565b634e487b7160e01b600052604160045260246000fd5b604051601f8201601f1916810167ffffffffffffffff81118282101715611804576118046117c5565b604052919050565b6000806040838503121561181f57600080fd5b823567ffffffffffffffff81111561183657600080fd5b8301601f8101851361184757600080fd5b803567ffffffffffffffff811115611861576118616117c5565b611874601f8201601f19166020016117db565b81815286602083850101111561188957600080fd5b8160208401602083013760006020928201830152969401359450505050565b6000602082016020835280845180835260408501915060408160051b86010192506020860160005b8281101561192157603f1987860301845281518051606087526118f660608801826116bc565b60208381015189820152604093840151939098019290925250949384019391909101906001016118d0565b50929695505050505050565b60006020828403121561193f57600080fd5b61173a8261177f565b60006020828403121561195a57600080fd5b813567ffffffffffffffff81111561197157600080fd5b8201601f8101841361198257600080fd5b803567ffffffffffffffff81111561199c5761199c6117c5565b8060051b6119ac602082016117db565b918252602081840181019290810190878411156119c857600080fd5b6020850194505b838510156119ee578435808352602095860195909350909101906119cf565b979650505050505050565b602080825282518282018190526000918401906040840190835b81811015611a31578351835260209384019390920191600101611a13565b509095945050505050565b600181811c90821680611a5057607f821691505b602082108103610e7757634e487b7160e01b600052602260045260246000fd5b6020808252600d908201526c2737ba103a34329037bbb732b960991b604082015260600190565b634e487b7160e01b600052601160045260246000fd5b8082028115828204841417610ad757610ad7611a97565b80820180821115610ad757610ad7611a97565b81810381811115610ad757610ad7611a97565b634e487b7160e01b600052603260045260246000fd5b601f8211156115e657806000526020600020601f840160051c81016020851015611b275750805b601f840160051c820191505b81811015611b475760008155600101611b33565b5050505050565b818103611b59575050565b611b638254611a3c565b67ffffffffffffffff811115611b7b57611b7b6117c5565b611b8f81611b898454611a3c565b84611b00565b6000601f821160018114611bc65760008315611bab5750848201545b600184901b600019600386901b1c198216175b855550611b47565b600085815260209020601f19841690600086815260209020845b83811015611c005782860154825560019586019590910190602001611be0565b5085831015611c1e5781850154600019600388901b60f8161c191681555b5050505050600190811b01905550565b634e487b7160e01b600052603160045260246000fd5b815167ffffffffffffffff811115611c5e57611c5e6117c5565b611c6c81611b898454611a3c565b6020601f821160018114611c9e5760008315611bab575081850151600184901b600019600386901b1c19821617611bbe565b600084815260208120601f198516915b82811015611cce5787850151825560209485019460019092019101611cae565b5084821015611cec5786840151600019600387901b60f8161c191681555b50505050600190811b01905550565b600060018201611d0d57611d0d611a97565b506001019056fea264697066735822122014e4d192ea44c711147dc657ae55a43270c604864ad51c10bcefeca139f63bac64736f6c634300081e0033",
  "linkReferences": {},
  "deployedLinkReferences": {}
}